:060000000A128A110C280F
:10000800FE00030EF4000A08F5000A128A111828E7
:100018000A128A110F28F601F701F801F901FA010D
:1000280083010A128A11B328831203130C1F1D2897
:100038001E2825281E08F80078088700F601F70111
:100048000C130B1C282829286A2806182C282D2868
:1000580035280130F3007308FA078501F601F70126
:1000680063288618382839283C280130FA023228B3
:1000780006193F28402849287808F0007A080A120B
:100088008A11E3200A128A11322886194C284D2831
:100098005A2888017A080A128A1105210A128A1137
:1000A800F90079088312031388003228061A5D289C
:1000B8005E2863280130F6000030F70063287A08CC
:1000C800831203138500780887000B1075088A00CF
:1000D800740E8300FE0E7E0E090083160317881621
:1000E80089010130831603138900FF3086008701D8
:1000F8008801850183120313850186018701880120
:1001080089018316031381137F3096000B108B151A
:10011800831203130C130B17831603130C178B1777
:10012800831203139F141F08C33914389F008316C2
:1001380003131F129F12831203131F083F398038BD
:100148009F00831603139F13831203131F14523047
:1001580083120313A000A00BAF28000008000A12A6
:100168008A1171200A128A11831203139F147603CD
:100178007704031DC028C128C22863008312031313
:100188009F18C728C828BB281F0CA100210C0F39AD
:10019800053A031DD028D128D5281F08C33914389B
:1001A8009F00523083120313A100A10BD92800002D
:1001B800831203139F14BB280A128A110C28F1001A
:1001C800831603178C18E928EA28E4287108831293
:1001D80003178D0070088C00831603178C130C15F9
:1001E80000308B1B0130F2008B1355308D00AA3084
:1001F8008D008C140C11720C031C8B1303188B17B5
:100208000800F000831603178C180B290C290629FF
:100218000C180F29102906297008831203178D005E
:10022800831603178C130C14831203170C08080089
:08400000FF3FFF3FFF3FFF3FC0
:04400E00D420FF3F7C
:00000001FF
